:10000000C2C00000DBC00000D9C00000D7C00000A3
:10001000D5C00000D3C00000D1C00000CFC0000098
:10002000CDC00000CBC0000065C40000C7C0000008
:10003000C5C00000C3C00000C1C00000BFC00000B8
:10004000BDC00000BBC00000B9C00000B7C00000C8
:10005000B5C00000B3C00000B1C00000AFC00000D8
:10006000ADC00000ABC00000A9C00000A7C00000E8
:10007000A5C00000A3C00000A1C000009FC00000F8
:100080009DC000009BC0000099C0000097C0000008
:1000900095C0000093C0000091C000008FC0000018
:1000A0008DC000008BC0000089C0000024035000F8
:1000B0004F004B004B0045004E00200043004F0016
:1000C0004E00540052004F004C004C0045005200BE
:1000D00000001C0348004F0052004900200043006C
:1000E0004F002E002C004C00540044002E00000055
:1000F000040309040902290001010080FA0904002F
:10010000000203000000092111010001225600072E
:1001100005020340000507058103400005120100A8
:1001200002000000400D0F920000010102000105D5
:10013000010905A10115002501350045017501954D
:1001400010050919012910810205012507463B0107
:100150007504950165140939814265009501810195
:1001600026FF0046FF0009300931093209357508BC
:10017000950481020600FF0920950181020A2126CB
:1001800095089102C00011241FBECFEFDAE0DEBF58
:10019000CDBF11E0A0E0B1E0ECE7FDE002C00590CA
:1001A0000D92A830B107D9F721E0A8E0B1E001C075
:1001B0001D92A631B207E1F7C3D0DEC521CF84B7C7
:1001C000877F84BF0FB6F894A895809160008861FE
:1001D00080936000109260000FBE90E080E80FB640
:1001E000F89480936100909361000FBE87E690E0E1
:1001F0009093CD008093CC0086E08093CA0010924B
:10020000C80088E18093C900539A5A9A56C308954A
:10021000089542E360EC82E089D242E361EC81E040
:1002200085C2DC0198E0E0E0F1E001900D929A9542
:10023000E1F70895CF93DF93CDB7DEB728970FB6D8
:10024000F894DEBF0FBECDBF80910F01813019F051
:100250008930B1F028C080910E01813A21F5CE019C
:100260000196DFDF8091E800877F8093E80068E0F7
:1002700070E0CE01019657D18091E8008B7711C0D4
:1002800080910E01813279F48091E800877F80931C
:10029000E80067E070E0CE010196A6D18091E80009
:1002A0008E778093E80028960FB6F894DEBF0FBED5
:1002B000CDBFDF91CF910895CF93DF93CDB7DEB758
:1002C00028970FB6F894DEBF0FBECDBF80910D0109
:1002D000843069F582E08093E9008091E80082FF34
:1002E00010C08091E80085FF07C040E050E067E063
:1002F00070E0CE010196CDD08091E8008B7780939D
:10030000E80081E08093E9008091E80080FF0FC061
:10031000CE01019686DF40E050E068E070E0CE015B
:1003200001966DD08091E8008E778093E800289642
:100330000FB6F894DEBF0FBECDBFDF91CF91089509
:100340003EDF7894C1E0B8DFFDD48091C80087FF1C
:10035000FACF9091CE0080910801282F823008F4C6
:100360002C2730E0F901E050FF4F90838F5F80939E
:100370000801883050F310920801E7CF292F332766
:1003800023303105E1F058F42130310599F0223065
:10039000310569F589E290E024EF30E02CC021328C
:1003A000310501F12232310511F586E590E02FE2A9
:1003B00031E021C082E190E02DE131E01CC09927BD
:1003C0008130910549F028F0029789F4ECEAF0E0D9
:1003D00005C0E0EFF0E002C0E2EDF0E0849190E0D3
:1003E0009F0109C089E090E026E031E004C080E090
:1003F00090E020E030E0FA01318320830895CF922D
:10040000DF92EF92FF920F931F93CF93DF93EC0154
:100410008B017A01DFD1811133C0E114F10439F08D
:10042000F70180819181081B190BC80FD91FC12CBE
:10043000D12C0115110519F18091E80085FD16C038
:100440008091E8008E778093E8007CD4E114F10479
:1004500049F0F70180819181C80ED91ED182C082F6
:1004600085E00EC0B7D1882321F30AC0899180931B
:10047000F10001501109FFEFCF1ADF0ADACF80E057
:10048000DF91CF911F910F91FF90EF90DF90CF9070
:100490000895CF92DF92EF92FF920F931F93CF9325
:1004A000DF93EC018B017A0195D1811133C0E11406
:1004B000F10439F0F70180819181081B190BC80FF5
:1004C000D91FC12CD12C0115110519F18091E8001B
:1004D00085FD16C08091E8008B778093E80032D4C8
:1004E000E114F10449F0F70180819181C80ED91E11
:1004F000D182C08285E00EC06DD1882321F30AC06D
:100500008091F100899301501109FFEFCF1ADF0AA2
:10051000DACF80E0DF91CF911F910F91FF90EF90A4
:10052000DF90CF9008952091140130911501261786
:10053000370748F06115710539F42091E8002E77EE
:100540002093E80001C0B901FC0120E061157105AC
:1005500091F180910D01882309F440C0853009F4A0
:100560003FC08091E80083FD3DC08091E80082FD9E
:100570002FC08091E80080FFE9CF2091F3008091A7
:10058000F20090E0922B6115710551F080349105D5
:1005900038F421912093F100615071090196F3CF55
:1005A00021E08034910509F020E08091E8008E7709
:1005B0008093E800CBCF2111CCCF0AC080910D01F0
:1005C000882361F0853061F08091E80083FD0AC0E6
:1005D0008091E80082FFF2CF80E0089582E00895E4
:1005E00083E0089581E008956115710529F4209153
:1005F000E8002B772093E800FC016115710541F1BB
:1006000080910D01882361F1853061F18091E800CE
:1006100083FD24C08091E80082FFEFCF2091F3009A
:100620008091F20090E0922B892B31F08091F100C3
:1006300081936150710991F78091E8008B778093E5
:10064000E800DBCF80910D01882351F0853051F017
:100650008091E80080FFF6CF80E0089581E0089562
:1006600082E0089583E008952091140130911501EE
:100670002617370748F06115710539F42091E80015
:100680002E772093E80001C0B901FC0120E061153C
:10069000710599F180910D01882309F441C08530DD
:1006A00009F440C08091E80083FD3EC08091E800DD
:1006B00082FD30C08091E80080FFE9CF2091F300F7
:1006C0008091F20090E0922B6115710559F0803411
:1006D000910540F424912093F10031966150710905
:1006E0000196F2CF21E08034910509F020E080915D
:1006F000E8008E778093E800CACF2111CBCF0AC0E3
:1007000080910D01882361F0853061F08091E800CF
:1007100083FD0AC08091E80082FFF2CF80E0089557
:1007200082E0089583E0089581E00895982F97303E
:1007300068F59093E900981739F07091EC002091DA
:10074000ED005091F00003C0242F762F50E021FDE2
:1007500002C09F5FECCF3091EB003E7F3093EB0007
:100760003091ED003D7F3093ED003091EB00316032
:100770003093EB007093EC002093ED005093F00069
:100780002091EE0027FDE5CF80E008958F708093E3
:10079000E90081E0089580910E0187FF11C08091EA
:1007A000E80082FD05C080910D018111F8CF11C0D4
:1007B0008091E8008B770BC080910D01882349F070
:1007C0008091E80080FFF8CF8091E8008E778093D9
:1007D000E80008952091E4003091E50095E640910D
:1007E000EC00842F817040FF23C08091E80080FDE1
:1007F0001DC080910D01882399F0853099F080917A
:10080000EB0085FD11C04091E4005091E5002417F4
:10081000350729F3915011F09A01E1CF84E0089552
:1008200082E0089583E0089581E0089580E00895CE
:100830004091E80042FFDDCF08950F931F93CF93BF
:10084000DF934BD052D0C8EDD0E088818F7788837A
:1008500088818068888388818F7D888319BC109205
:100860000D011092090110920B0110920A0100EE85
:1008700010E0F80180818B7F80838881816088838C
:1008800042E360E080E052DFE1EEF0E080818E7FC5
:100890008083E2EEF0E080818160808380818860E7
:1008A0008083F80180818E7F808388818061888346
:1008B000DF91CF911F910F910895E8EDF0E08081D5
:1008C0008F7E8083E7EDF0E080818160808384E02B
:1008D00082BF81E080930C01B0CFE8EDF0E0808131
:1008E0008E7F80831092E20008951092DA001092B9
:1008F000E10008951F920F920FB60F9211242F93CB
:100900003F934F935F936F937F938F939F93AF9397
:10091000BF93EF93FF938091E10082FF0AC0809123
:10092000E20082FF06C08091E1008B7F8093E100AE
:1009300008D28091DA0080FF1DC08091D80080FF2E
:1009400019C08091DA008E7F8093DA008091D900FF
:1009500080FF0CC080E189BD82E189BD09B400FE41
:10096000FDCF81E080930D0152DC04C019BC1092D0
:100970000D014EDC8091E10080FF18C08091E20003
:1009800080FF14C08091E2008E7F8093E20080910E
:10099000E20080618093E2008091D80080628093C1
:1009A000D80019BC85E080930D01CBD18091E10086
:1009B00084FF2FC08091E20084FF2BC080E189BDBD
:1009C00082E189BD09B400FEFDCF8091D8008F7D02
:1009D0008093D8008091E1008F7E8093E100809128
:1009E000E2008F7E8093E2008091E200816080933C
:1009F000E20080910901882311F084E007C0809112
:100A0000E30087FD02C081E001C083E080930D0117
:100A100098D18091E10083FF22C08091E20083FFA2
:100A20001EC08091E100877F8093E10082E0809387
:100A30000D01109209018091E1008E7F8093E10009
:100A40008091E2008E7F8093E2008091E2008061DD
:100A50008093E20042E360E080E068DE72D1FF91C3
:100A6000EF91BF91AF919F918F917F916F915F9126
:100A70004F913F912F910F900FBE0F901F9018959F
:100A80001F93CF93DF93CDB7DEB7AA970FB6F89435
:100A9000DEBF0FBECDBFEEE0F1E08091F1008193AB
:100AA00021E0E631F207C9F7C5DB8091E80083FF5A
:100AB00030C180910E0190910F01953009F483C0EF
:100AC00030F49130A9F168F0933091F122C198305F
:100AD00009F4EFC0993009F4FBC0963009F019C150
:100AE00094C0803821F0823809F013C108C0809189
:100AF0000A0190910B01992389F082600FC08091C7
:100B000012018F70873008F004C18093E900809152
:100B1000EB0085FB882780F91092E9009091E800AE
:100B2000977F9093E8008093F1001092F100CCC081
:100B3000282F2D7F09F0EDC0882319F0823061F055
:100B4000E8C080911001813009F0E3C0933009F0D2
:100B500080E080930B012EC08091100181112AC08A
:100B6000809112018F702FEF280F263008F0D1C02E
:100B70008093E9002091EB0020FF1CC0933021F40A
:100B80008091EB00806214C09091EB009061909393
:100B9000EB0021E030E0A90102C0440F551F8A9507
:100BA000E2F74093EA001092EA008091EB0088603F
:100BB0008093EB001092E9008091E800877F80939A
:100BC000E800E9DDA6C08111A4C0109110011F77D3
:100BD0008091E3008078812B8093E3008091E8008E
:100BE000877F8093E800D7DD8091E80080FFFCCF0D
:100BF0008091E30080688093E300111102C082E0DD
:100C000001C083E080930D0184C08058823008F0D9
:100C100080C080911001909111018C3D53E09507A7
:100C200071F583E08A838AE289834FB7F894DE0105
:100C3000139620E03EE051E2E32FF0E0509357009E
:100C4000E49120FF03C0E295EF703F5FEF708E2FBD
:100C500090E0EA3010F0C79601C0C0968D939D9346
:100C60002F5F243149F74FBF8091E800877F809341
:100C7000E8006AE270E0CE01019655DC14C0609194
:100C8000120170911301AE014F5F5F4F77DBBC0122
:100C9000892B09F43EC09091E800977F9093E8007B
:100CA00089819A81E1DC8091E8008B778093E8006C
:100CB00030C0803871F58091E800877F8093E8002C
:100CC000809109018093F1008091E8008E7777CFC1
:100CD00081111FC0809110019091110199270297F5
:100CE000C4F48091E800877F8093E8008091100130
:100CF0008093090150DD80910901811106C0809126
:100D0000E30087FD02C081E001C084E080930D0113
:100D100080DA8091E80083FF0AC08091E800877F35
:100D20008093E8008091EB0080628093EB00AA96AC
:100D30000FB6F894DEBF0FBECDBFDF91CF911F91EC
:100D400008950895CF9380910D01882399F0C09163
:100D5000E900CF709091EC00892F817090FD80E8C0
:100D6000C82B1092E9008091E80083FD89DECF70E6
:0C0D7000C093E900CF910895F894FFCFE4
:080D7C00000008808080800067
:00000001FF
